{
  "contractName": "Urheberrecht",
  "abi": [
    {
      "constant": true,
      "inputs": [],
      "name": "ownerCount",
      "outputs": [
        {
          "name": "",
          "type": "uint256"
        }
      ],
      "payable": false,
      "stateMutability": "view",
      "type": "function"
    },
    {
      "constant": true,
      "inputs": [
        {
          "name": "",
          "type": "address"
        }
      ],
      "name": "ownerList",
      "outputs": [
        {
          "name": "name",
          "type": "string"
        },
        {
          "name": "mail",
          "type": "string"
        },
        {
          "name": "isUser",
          "type": "bool"
        }
      ],
      "payable": false,
      "stateMutability": "view",
      "type": "function"
    },
    {
      "constant": true,
      "inputs": [
        {
          "name": "",
          "type": "uint256"
        }
      ],
      "name": "imageList",
      "outputs": [
        {
          "name": "id",
          "type": "uint256"
        },
        {
          "name": "image",
          "type": "string"
        },
        {
          "name": "description",
          "type": "string"
        },
        {
          "name": "update",
          "type": "string"
        },
        {
          "name": "Besitzer",
          "type": "address"
        }
      ],
      "payable": false,
      "stateMutability": "view",
      "type": "function"
    },
    {
      "inputs": [],
      "payable": false,
      "stateMutability": "nonpayable",
      "type": "constructor"
    },
    {
      "constant": false,
      "inputs": [
        {
          "name": "_image",
          "type": "string"
        },
        {
          "name": "_description",
          "type": "string"
        }
      ],
      "name": "addImage",
      "outputs": [
        {
          "name": "ok",
          "type": "string"
        }
      ],
      "payable": false,
      "stateMutability": "nonpayable",
      "type": "function"
    },
    {
      "constant": true,
      "inputs": [
        {
          "name": "_image",
          "type": "string"
        }
      ],
      "name": "checkImage",
      "outputs": [
        {
          "name": "ok",
          "type": "bool"
        }
      ],
      "payable": false,
      "stateMutability": "view",
      "type": "function"
    },
    {
      "constant": false,
      "inputs": [
        {
          "name": "_image",
          "type": "string"
        },
        {
          "name": "_description",
          "type": "string"
        }
      ],
      "name": "addImageinital",
      "outputs": [],
      "payable": false,
      "stateMutability": "nonpayable",
      "type": "function"
    },
    {
      "constant": true,
      "inputs": [],
      "name": "listImage",
      "outputs": [
        {
          "components": [
            {
              "name": "id",
              "type": "uint256"
            },
            {
              "name": "image",
              "type": "string"
            },
            {
              "name": "description",
              "type": "string"
            },
            {
              "name": "update",
              "type": "string"
            },
            {
              "name": "Besitzer",
              "type": "address"
            }
          ],
          "name": "",
          "type": "tuple[]"
        }
      ],
      "payable": false,
      "stateMutability": "view",
      "type": "function"
    },
    {
      "constant": true,
      "inputs": [
        {
          "name": "id",
          "type": "uint256"
        }
      ],
      "name": "getImage",
      "outputs": [
        {
          "name": "output",
          "type": "string"
        }
      ],
      "payable": false,
      "stateMutability": "view",
      "type": "function"
    },
    {
      "constant": true,
      "inputs": [
        {
          "name": "id",
          "type": "uint256"
        }
      ],
      "name": "getImageDesc",
      "outputs": [
        {
          "name": "description",
          "type": "string"
        }
      ],
      "payable": false,
      "stateMutability": "view",
      "type": "function"
    },
    {
      "constant": true,
      "inputs": [
        {
          "name": "id",
          "type": "uint256"
        }
      ],
      "name": "getImageOwner",
      "outputs": [
        {
          "name": "owner",
          "type": "address"
        }
      ],
      "payable": false,
      "stateMutability": "view",
      "type": "function"
    },
    {
      "constant": true,
      "inputs": [
        {
          "name": "id",
          "type": "uint256"
        }
      ],
      "name": "getImageHash",
      "outputs": [
        {
          "name": "hash",
          "type": "string"
        }
      ],
      "payable": false,
      "stateMutability": "view",
      "type": "function"
    },
    {
      "constant": true,
      "inputs": [],
      "name": "getImageCount",
      "outputs": [
        {
          "name": "count",
          "type": "uint256"
        }
      ],
      "payable": false,
      "stateMutability": "view",
      "type": "function"
    },
    {
      "constant": true,
      "inputs": [
        {
          "name": "id",
          "type": "uint256"
        }
      ],
      "name": "getOwnerName",
      "outputs": [
        {
          "name": "Name",
          "type": "string"
        }
      ],
      "payable": false,
      "stateMutability": "view",
      "type": "function"
    },
    {
      "constant": true,
      "inputs": [
        {
          "name": "id",
          "type": "uint256"
        }
      ],
      "name": "getOwnerMail",
      "outputs": [
        {
          "name": "Mail",
          "type": "string"
        }
      ],
      "payable": false,
      "stateMutability": "view",
      "type": "function"
    },
    {
      "constant": false,
      "inputs": [
        {
          "name": "id",
          "type": "uint256"
        },
        {
          "name": "_newhash",
          "type": "string"
        },
        {
          "name": "update",
          "type": "string"
        }
      ],
      "name": "updateImage",
      "outputs": [],
      "payable": false,
      "stateMutability": "nonpayable",
      "type": "function"
    },
    {
      "constant": true,
      "inputs": [
        {
          "name": "id",
          "type": "uint256"
        }
      ],
      "name": "showUpdates",
      "outputs": [
        {
          "name": "",
          "type": "string"
        }
      ],
      "payable": false,
      "stateMutability": "view",
      "type": "function"
    },
    {
      "constant": false,
      "inputs": [
        {
          "name": "_name",
          "type": "string"
        },
        {
          "name": "_mail",
          "type": "string"
        }
      ],
      "name": "registOwner",
      "outputs": [],
      "payable": false,
      "stateMutability": "nonpayable",
      "type": "function"
    },
    {
      "constant": true,
      "inputs": [],
      "name": "checkOwner",
      "outputs": [
        {
          "name": "ok",
          "type": "bool"
        }
      ],
      "payable": false,
      "stateMutability": "view",
      "type": "function"
    },
    {
      "constant": true,
      "inputs": [],
      "name": "showOwner",
      "outputs": [
        {
          "name": "name",
          "type": "string"
        },
        {
          "name": "mail",
          "type": "string"
        }
      ],
      "payable": false,
      "stateMutability": "view",
      "type": "function"
    }
  ],
  "bytecode": "0x6080604052600080553480156200001557600080fd5b506200009b6040805190810160405280601081526020017f37666666366530303030303431303030000000000000000000000000000000008152506040805190810160405280602081526020017f6d6f756e7461696e207065616b20647572696e6720676f6c64656e20686f7572815250620000a1640100000000026401000000009004565b62000284565b6000600280549050905060606000339050600260a0604051908101604052808581526020018781526020018681526020018481526020018373ffffffffffffffffffffffffffffffffffffffff168152509080600181540180825580915050906001820390600052602060002090600502016000909192909190915060008201518160000155602082015181600101908051906020019062000145929190620001d5565b50604082015181600201908051906020019062000164929190620001d5565b50606082015181600301908051906020019062000183929190620001d5565b5060808201518160040160006101000a81548173ffffffffffffffffffffffffffffffffffffffff021916908373ffffffffffffffffffffffffffffffffffffffff1602179055505050505050505050565b828054600181600116156101000203166002900490600052602060002090601f016020900481019282601f106200021857805160ff191683800117855562000249565b8280016001018555821562000249579182015b82811115620002485782518255916020019190600101906200022b565b5b5090506200025891906200025c565b5090565b6200028191905b808211156200027d57600081600090555060010162000263565b5090565b90565b612b4580620002946000396000f3fe608060405260043610610107576000357c0100000000000000000000000000000000000000000000000000000000900463ffffffff1680630a78b1791461010c5780630db02622146101355780632607aafa146101605780632a7eab731461019d57806334c71a93146101da57806351f22a721461021757806362834462146102565780636d1d7c551461029357806378b948aa146102bc5780638230c4fb146102f95780638ebbd8641461033657806396e87d191461035f578063a6eecd18146103a0578063a9b11426146103dd578063cdbce03d1461041a578063d106da9414610445578063ded9468814610470578063f822d3041461049c578063f97c44a9146104d9575b600080fd5b34801561011857600080fd5b50610133600480360361012e91908101906125a8565b610504565b005b34801561014157600080fd5b5061014a610632565b604051610157919061293d565b60405180910390f35b34801561016c57600080fd5b5061018760048036036101829190810190612614565b610638565b604051610194919061289f565b60405180910390f35b3480156101a957600080fd5b506101c460048036036101bf9190810190612614565b6109f8565b6040516101d1919061289f565b60405180910390f35b3480156101e657600080fd5b5061020160048036036101fc9190810190612614565b610b1c565b60405161020e919061289f565b60405180910390f35b34801561022357600080fd5b5061023e6004803603610239919081019061253e565b610bde565b60405161024d939291906128f8565b60405180910390f35b34801561026257600080fd5b5061027d60048036036102789190810190612614565b610d45565b60405161028a919061289f565b60405180910390f35b34801561029f57600080fd5b506102ba60048036036102b5919081019061263d565b610e07565b005b3480156102c857600080fd5b506102e360048036036102de9190810190612614565b610f6d565b6040516102f0919061289f565b60405180910390f35b34801561030557600080fd5b50610320600480360361031b9190810190612614565b61102f565b60405161032d919061289f565b60405180910390f35b34801561034257600080fd5b5061035d600480360361035891908101906125a8565b611153565b005b34801561036b57600080fd5b5061038660048036036103819190810190612614565b61122f565b604051610397959493929190612958565b60405180910390f35b3480156103ac57600080fd5b506103c760048036036103c291908101906125a8565b61145c565b6040516103d4919061289f565b60405180910390f35b3480156103e957600080fd5b5061040460048036036103ff9190810190612614565b61162c565b6040516104119190612847565b60405180910390f35b34801561042657600080fd5b5061042f611676565b60405161043c9190612884565b60405180910390f35b34801561045157600080fd5b5061045a6116e4565b6040516104679190612862565b60405180910390f35b34801561047c57600080fd5b5061048561198a565b6040516104939291906128c1565b60405180910390f35b3480156104a857600080fd5b506104c360048036036104be9190810190612567565b611bd4565b6040516104d09190612884565b60405180910390f35b3480156104e557600080fd5b506104ee611ded565b6040516104fb919061293d565b60405180910390f35b6000600280549050905060606000339050600260a0604051908101604052808581526020018781526020018681526020018481526020018373ffffffffffffffffffffffffffffffffffffffff16815250908060018154018082558091505090600182039060005260206000209060050201600090919290919091506000820151816000015560208201518160010190805190602001906105a692919061239b565b5060408201518160020190805190602001906105c392919061239b565b5060608201518160030190805190602001906105e092919061239b565b5060808201518160040160006101000a81548173ffffffffffffffffffffffffffffffffffffffff021916908373ffffffffffffffffffffffffffffffffffffffff1602179055505050505050505050565b60005481565b60608061064483611dfa565b905060606109ec6040805190810160405280600581526020017f42696c6420000000000000000000000000000000000000000000000000000000815250836040805190810160405280600281526020017f3a200000000000000000000000000000000000000000000000000000000000008152506040805190810160405280600781526020017f20486173683a20000000000000000000000000000000000000000000000000008152506002898154811015156106fd57fe5b90600052602060002090600502016001018054600181600116156101000203166002900480601f0160208091040260200160405190810160405280929190818152602001828054600181600116156101000203166002900480156107a25780601f10610777576101008083540402835291602001916107a2565b820191906000526020600020905b81548152906001019060200180831161078557829003601f168201915b50505050506040805190810160405280600e81526020017f204465736372697074696f6e3a2000000000000000000000000000000000000081525060028b8154811015156107ec57fe5b90600052602060002090600502016002018054600181600116156101000203166002900480601f0160208091040260200160405190810160405280929190818152602001828054600181600116156101000203166002900480156108915780601f1061086657610100808354040283529160200191610891565b820191906000526020600020905b81548152906001019060200180831161087457829003601f168201915b50505050506040805190810160405280600881526020017f204f776e65723a200000000000000000000000000000000000000000000000008152506001600060028f8154811015156108df57fe5b906000526020600020906005020160040160009054906101000a900473ffffffffffffffffffffffffffffffffffffffff1673ffffffffffffffffffffffffffffffffffffffff1673ffffffffffffffffffffffffffffffffffffffff1681526020019081526020016000206000018054600181600116156101000203166002900480601f0160208091040260200160405190810160405280929190818152602001828054600181600116156101000203166002900480156109e25780601f106109b7576101008083540402835291602001916109e2565b820191906000526020600020905b8154815290600101906020018083116109c557829003601f168201915b5050505050611f53565b90508092505050919050565b606060016000600284815481101515610a0d57fe5b906000526020600020906005020160040160009054906101000a900473ffffffffffffffffffffffffffffffffffffffff1673ffffffffffffffffffffffffffffffffffffffff1673ffffffffffffffffffffffffffffffffffffffff1681526020019081526020016000206001018054600181600116156101000203166002900480601f016020809104026020016040519081016040528092919081815260200182805460018160011615610100020316600290048015610b105780601f10610ae557610100808354040283529160200191610b10565b820191906000526020600020905b815481529060010190602001808311610af357829003601f168201915b50505050509050919050565b6060600282815481101515610b2d57fe5b90600052602060002090600502016003018054600181600116156101000203166002900480601f016020809104026020016040519081016040528092919081815260200182805460018160011615610100020316600290048015610bd25780601f10610ba757610100808354040283529160200191610bd2565b820191906000526020600020905b815481529060010190602001808311610bb557829003601f168201915b50505050509050919050565b6001602052806000526040600020600091509050806000018054600181600116156101000203166002900480601f016020809104026020016040519081016040528092919081815260200182805460018160011615610100020316600290048015610c8a5780601f10610c5f57610100808354040283529160200191610c8a565b820191906000526020600020905b815481529060010190602001808311610c6d57829003601f168201915b505050505090806001018054600181600116156101000203166002900480601f016020809104026020016040519081016040528092919081815260200182805460018160011615610100020316600290048015610d285780601f10610cfd57610100808354040283529160200191610d28565b820191906000526020600020905b815481529060010190602001808311610d0b57829003601f168201915b5050505050908060020160009054906101000a900460ff16905083565b6060600282815481101515610d5657fe5b90600052602060002090600502016001018054600181600116156101000203166002900480601f016020809104026020016040519081016040528092919081815260200182805460018160011615610100020316600290048015610dfb5780601f10610dd057610100808354040283529160200191610dfb565b820191906000526020600020905b815481529060010190602001808311610dde57829003601f168201915b50505050509050919050565b81600284815481101515610e1757fe5b90600052602060002090600502016001019080519060200190610e3b92919061241b565b50610f34600284815481101515610e4e57fe5b90600052602060002090600502016003018054600181600116156101000203166002900480601f016020809104026020016040519081016040528092919081815260200182805460018160011615610100020316600290048015610ef35780601f10610ec857610100808354040283529160200191610ef3565b820191906000526020600020905b815481529060010190602001808311610ed657829003601f168201915b50505050506040805190810160405280600281526020017f2c2000000000000000000000000000000000000000000000000000000000000081525083612279565b600284815481101515610f4357fe5b90600052602060002090600502016003019080519060200190610f6792919061241b565b50505050565b6060600282815481101515610f7e57fe5b90600052602060002090600502016002018054600181600116156101000203166002900480601f0160208091040260200160405190810160405280929190818152602001828054600181600116156101000203166002900480156110235780601f10610ff857610100808354040283529160200191611023565b820191906000526020600020905b81548152906001019060200180831161100657829003601f168201915b50505050509050919050565b60606001600060028481548110151561104457fe5b906000526020600020906005020160040160009054906101000a900473ffffffffffffffffffffffffffffffffffffffff1673ffffffffffffffffffffffffffffffffffffffff1673ffffffffffffffffffffffffffffffffffffffff1681526020019081526020016000206000018054600181600116156101000203166002900480601f0160208091040260200160405190810160405280929190818152602001828054600181600116156101000203166002900480156111475780601f1061111c57610100808354040283529160200191611147565b820191906000526020600020905b81548152906001019060200180831161112a57829003601f168201915b50505050509050919050565b60008081548092919060010191905055506000339050600060019050606060405190810160405280858152602001848152602001821515815250600160008473ffffffffffffffffffffffffffffffffffffffff1673ffffffffffffffffffffffffffffffffffffffff16815260200190815260200160002060008201518160000190805190602001906111e892919061239b565b50602082015181600101908051906020019061120592919061239b565b5060408201518160020160006101000a81548160ff02191690831515021790555090505050505050565b60028181548110151561123e57fe5b9060005260206000209060050201600091509050806000015490806001018054600181600116156101000203166002900480601f0160208091040260200160405190810160405280929190818152602001828054600181600116156101000203166002900480156112f05780601f106112c5576101008083540402835291602001916112f0565b820191906000526020600020905b8154815290600101906020018083116112d357829003601f168201915b505050505090806002018054600181600116156101000203166002900480601f01602080910402602001604051908101604052809291908181526020018280546001816001161561010002031660029004801561138e5780601f106113635761010080835404028352916020019161138e565b820191906000526020600020905b81548152906001019060200180831161137157829003601f168201915b505050505090806003018054600181600116156101000203166002900480601f01602080910402602001604051908101604052809291908181526020018280546001816001161561010002031660029004801561142c5780601f106114015761010080835404028352916020019161142c565b820191906000526020600020905b81548152906001019060200180831161140f57829003601f168201915b5050505050908060040160009054906101000a900473ffffffffffffffffffffffffffffffffffffffff16905085565b606061146783611bd4565b156115d3576000600280549050905060606000339050600260a0604051908101604052808581526020018881526020018781526020018481526020018373ffffffffffffffffffffffffffffffffffffffff168152509080600181540180825580915050906001820390600052602060002090600502016000909192909190915060008201518160000155602082015181600101908051906020019061150e92919061239b565b50604082015181600201908051906020019061152b92919061239b565b50606082015181600301908051906020019061154892919061239b565b5060808201518160040160006101000a81548173ffffffffffffffffffffffffffffffffffffffff021916908373ffffffffffffffffffffffffffffffffffffffff1602179055505050506040805190810160405280600c81526020017f42696c64206572666173737400000000000000000000000000000000000000008152509350505050611626565b600015156115e084611bd4565b15151415611625576040805190810160405280601281526020017f42696c64206e69636874206572666173737400000000000000000000000000008152509050611626565b5b92915050565b600060028281548110151561163d57fe5b906000526020600020906005020160040160009054906101000a900473ffffffffffffffffffffffffffffffffffffffff169050919050565b6000801515600160003373ffffffffffffffffffffffffffffffffffffffff1673ffffffffffffffffffffffffffffffffffffffff16815260200190815260200160002060020160009054906101000a900460ff16151514156116dc57600090506116e1565b600190505b90565b60606002805480602002602001604051908101604052809291908181526020016000905b82821015611981578382906000526020600020906005020160a0604051908101604052908160008201548152602001600182018054600181600116156101000203166002900480601f0160208091040260200160405190810160405280929190818152602001828054600181600116156101000203166002900480156117cf5780601f106117a4576101008083540402835291602001916117cf565b820191906000526020600020905b8154815290600101906020018083116117b257829003601f168201915b50505050508152602001600282018054600181600116156101000203166002900480601f0160208091040260200160405190810160405280929190818152602001828054600181600116156101000203166002900480156118715780601f1061184657610100808354040283529160200191611871565b820191906000526020600020905b81548152906001019060200180831161185457829003601f168201915b50505050508152602001600382018054600181600116156101000203166002900480601f0160208091040260200160405190810160405280929190818152602001828054600181600116156101000203166002900480156119135780601f106118e857610100808354040283529160200191611913565b820191906000526020600020905b8154815290600101906020018083116118f657829003601f168201915b505050505081526020016004820160009054906101000a900473ffffffffffffffffffffffffffffffffffffffff1673ffffffffffffffffffffffffffffffffffffffff1673ffffffffffffffffffffffffffffffffffffffff168152505081526020019060010190611708565b50505050905090565b606080611995611676565b15611b5f57600160003373ffffffffffffffffffffffffffffffffffffffff1673ffffffffffffffffffffffffffffffffffffffff168152602001908152602001600020600001600160003373ffffffffffffffffffffffffffffffffffffffff1673ffffffffffffffffffffffffffffffffffffffff168152602001908152602001600020600101818054600181600116156101000203166002900480601f016020809104026020016040519081016040528092919081815260200182805460018160011615610100020316600290048015611ab35780601f10611a8857610100808354040283529160200191611ab3565b820191906000526020600020905b815481529060010190602001808311611a9657829003601f168201915b50505050509150808054600181600116156101000203166002900480601f016020809104026020016040519081016040528092919081815260200182805460018160011615610100020316600290048015611b4f5780601f10611b2457610100808354040283529160200191611b4f565b820191906000526020600020905b815481529060010190602001808311611b3257829003601f168201915b5050505050905091509150611bd0565b6040805190810160405280600d81526020017f6e696368742065726661737374000000000000000000000000000000000000008152506040805190810160405280600d81526020017f6e69636874206572666173737400000000000000000000000000000000000000815250915091505b9091565b6000809050606082905060008090505b60028054905081111515611de5576060600282815481101515611c0357fe5b90600052602060002090600502016001018054600181600116156101000203166002900480601f016020809104026020016040519081016040528092919081815260200182805460018160011615610100020316600290048015611ca85780601f10611c7d57610100808354040283529160200191611ca8565b820191906000526020600020905b815481529060010190602001808311611c8b57829003601f168201915b5050505050905060008090505b835181111515611dd6578181815181101515611ccd57fe5b9060200101517f010000000000000000000000000000000000000000000000000000000000000090047f0100000000000000000000000000000000000000000000000000000000000000027effffffffffffffffffffffffffffffffffffffffffffffffffffffffffffff19168482815181101515611d4857fe5b9060200101517f010000000000000000000000000000000000000000000000000000000000000090047f0100000000000000000000000000000000000000000000000000000000000000027effffffffffffffffffffffffffffffffffffffffffffffffffffffffffffff1916141515611dc9576001945050505050611de8565b8080600101915050611cb5565b50508080600101915050611be4565b50505b919050565b6000600280549050905090565b60606000821415611e42576040805190810160405280600181526020017f30000000000000000000000000000000000000000000000000000000000000008152509050611f4e565b600082905060005b600082141515611e70578080600101915050600a82811515611e6857fe5b049150611e4a565b6060816040519080825280601f01601f191660200182016040528015611ea55781602001600182028038833980820191505090505b50905060006001830390505b600086141515611f4657600a86811515611ec757fe5b066030017f010000000000000000000000000000000000000000000000000000000000000002828280600190039350815181101515611f0257fe5b9060200101907effffffffffffffffffffffffffffffffffffffffffffffffffffffffffffff1916908160001a905350600a86811515611f3e57fe5b049550611eb1565b819450505050505b919050565b6060898989898989898989604051602001808a805190602001908083835b602083101515611f965780518252602082019150602081019050602083039250611f71565b6001836020036101000a03801982511681845116808217855250505050505090500189805190602001908083835b602083101515611fe95780518252602082019150602081019050602083039250611fc4565b6001836020036101000a03801982511681845116808217855250505050505090500188805190602001908083835b60208310151561203c5780518252602082019150602081019050602083039250612017565b6001836020036101000a03801982511681845116808217855250505050505090500187805190602001908083835b60208310151561208f578051825260208201915060208101905060208303925061206a565b6001836020036101000a03801982511681845116808217855250505050505090500186805190602001908083835b6020831015156120e257805182526020820191506020810190506020830392506120bd565b6001836020036101000a03801982511681845116808217855250505050505090500185805190602001908083835b6020831015156121355780518252602082019150602081019050602083039250612110565b6001836020036101000a03801982511681845116808217855250505050505090500184805190602001908083835b6020831015156121885780518252602082019150602081019050602083039250612163565b6001836020036101000a03801982511681845116808217855250505050505090500183805190602001908083835b6020831015156121db57805182526020820191506020810190506020830392506121b6565b6001836020036101000a03801982511681845116808217855250505050505090500182805190602001908083835b60208310151561222e5780518252602082019150602081019050602083039250612209565b6001836020036101000a038019825116818451168082178552505050505050905001995050505050505050505060405160208183030381529060405290509998505050505050505050565b60608383836040516020018084805190602001908083835b6020831015156122b65780518252602082019150602081019050602083039250612291565b6001836020036101000a03801982511681845116808217855250505050505090500183805190602001908083835b60208310151561230957805182526020820191506020810190506020830392506122e4565b6001836020036101000a03801982511681845116808217855250505050505090500182805190602001908083835b60208310151561235c5780518252602082019150602081019050602083039250612337565b6001836020036101000a038019825116818451168082178552505050505050905001935050505060405160208183030381529060405290509392505050565b828054600181600116156101000203166002900490600052602060002090601f016020900481019282601f106123dc57805160ff191683800117855561240a565b8280016001018555821561240a579182015b828111156124095782518255916020019190600101906123ee565b5b509050612417919061249b565b5090565b828054600181600116156101000203166002900490600052602060002090601f016020900481019282601f1061245c57805160ff191683800117855561248a565b8280016001018555821561248a579182015b8281111561248957825182559160200191906001019061246e565b5b509050612497919061249b565b5090565b6124bd91905b808211156124b95760008160009055506001016124a1565b5090565b90565b60006124cc8235612a9c565b905092915050565b600082601f83011215156124e757600080fd5b81356124fa6124f5826129ed565b6129c0565b9150808252602083016020830185838301111561251657600080fd5b612521838284612ab8565b50505092915050565b60006125368235612aae565b905092915050565b60006020828403121561255057600080fd5b600061255e848285016124c0565b91505092915050565b60006020828403121561257957600080fd5b600082013567ffffffffffffffff81111561259357600080fd5b61259f848285016124d4565b91505092915050565b600080604083850312156125bb57600080fd5b600083013567ffffffffffffffff8111156125d557600080fd5b6125e1858286016124d4565b925050602083013567ffffffffffffffff8111156125fe57600080fd5b61260a858286016124d4565b9150509250929050565b60006020828403121561262657600080fd5b60006126348482850161252a565b91505092915050565b60008060006060848603121561265257600080fd5b60006126608682870161252a565b935050602084013567ffffffffffffffff81111561267d57600080fd5b612689868287016124d4565b925050604084013567ffffffffffffffff8111156126a657600080fd5b6126b2868287016124d4565b9150509250925092565b6126c581612a54565b82525050565b60006126d682612a26565b808452602084019350836020820285016126ef85612a19565b60005b8481101561272857838303885261270a8383516127b4565b925061271582612a47565b91506020880197506001810190506126f2565b508196508694505050505092915050565b61274281612a66565b82525050565b600061275382612a3c565b808452612767816020860160208601612ac7565b61277081612afa565b602085010191505092915050565b600061278982612a31565b80845261279d816020860160208601612ac7565b6127a681612afa565b602085010191505092915050565b600060a0830160008301516127cc6000860182612838565b50602083015184820360208601526127e4828261277e565b915050604083015184820360408601526127fe828261277e565b91505060608301518482036060860152612818828261277e565b915050608083015161282d60808601826126bc565b508091505092915050565b61284181612a92565b82525050565b600060208201905061285c60008301846126bc565b92915050565b6000602082019050818103600083015261287c81846126cb565b905092915050565b60006020820190506128996000830184612739565b92915050565b600060208201905081810360008301526128b98184612748565b905092915050565b600060408201905081810360008301526128db8185612748565b905081810360208301526128ef8184612748565b90509392505050565b60006060820190508181036000830152612912818661277e565b90508181036020830152612926818561277e565b90506129356040830184612739565b949350505050565b60006020820190506129526000830184612838565b92915050565b600060a08201905061296d6000830188612838565b818103602083015261297f818761277e565b90508181036040830152612993818661277e565b905081810360608301526129a7818561277e565b90506129b660808301846126bc565b9695505050505050565b6000604051905081810181811067ffffffffffffffff821117156129e357600080fd5b8060405250919050565b600067ffffffffffffffff821115612a0457600080fd5b601f19601f8301169050602081019050919050565b6000602082019050919050565b600081519050919050565b600081519050919050565b600081519050919050565b6000602082019050919050565b6000612a5f82612a72565b9050919050565b60008115159050919050565b600073ffffffffffffffffffffffffffffffffffffffff82169050919050565b6000819050919050565b6000612aa782612a72565b9050919050565b6000819050919050565b82818337600083830152505050565b60005b83811015612ae5578082015181840152602081019050612aca565b83811115612af4576000848401525b50505050565b6000601f19601f830116905091905056fea265627a7a7230582030edb06748545724bf1ade3b90c7ef12c13dd5519aa1776e2ebcfa845395d10b6c6578706572696d656e74616cf50037",
  "source": "pragma solidity ^0.5.0;\npragma experimental ABIEncoderV2;\n    \n    contract Urheberrecht {\n        uint256 public ownerCount = 0;\n        mapping(address => Owner)public ownerList;\n        Image[] public imageList;\n        \n        struct Image {\n            uint id;\n            string image;\n            string description;\n            string update;\n            address Besitzer;\n        }\n         struct Owner {\n            string name;\n            string mail;\n            bool isUser;\n        }\n    //constructor--------------------------------------------------------\nconstructor() public {\n        addImageinital(\"7fff6e0000041000\",\"mountain peak during golden hour\");\n      }\n    //image---------------------------------------------------------------\n    \n    function addImage(string memory _image,  string memory _description) public returns(string memory ok){\n            if (checkImage(_image)) { \n            uint id= imageList.length;\n            string memory update;\n            address owner = msg.sender;\n            imageList.push(Image(id,_image, _description,update, owner));\n            return (\"Bild erfasst\");\n            }\n            if (checkImage(_image)==false){\n                return (\"Bild nicht erfasst\");\n            }\n    }\n    \n    function checkImage(string memory _image) public view returns (bool ok){\n        ok = false;\n        bytes memory byteString = bytes(_image);\n        for (uint i = 0; i <= imageList.length; i++){\n            bytes memory byteImage = bytes(imageList[i].image);\n            for (uint j = 0; j <= byteString.length; j++){\n                if (byteString[j] != byteImage[j]){\n                    return true;\n                }\n            }    \n        }\n    }\n    \n    function addImageinital(string memory _image,  string memory _description) public{\n        //check if image exists\n            uint id= imageList.length;\n            string memory update;\n            address owner = msg.sender;\n            imageList.push(Image(id,_image, _description, update, owner));\n    }\n    \n    function listImage() public view returns (Image[] memory){\n        return imageList;\n    }\n    \n    function getImage(uint id) public view returns (string memory output){\n        string memory ids = uint2str(id);\n        string memory out = append9(\"Bild \",ids,\": \", \" Hash: \",imageList[id].image, \" Description: \",imageList[id].description,\" Owner: \",ownerList[imageList[id].Besitzer].name);\n       return out;\n   }\n    function getImageDesc(uint id) public view returns (string memory description){\n       return (imageList[id].description);\n    }\n    function getImageOwner(uint id) public view returns (address owner){\n        return (imageList[id].Besitzer);\n    }\n    function getImageHash(uint id) public view returns (string memory hash){\n        return (imageList[id].image);\n    }\n    function getImageCount() public view returns (uint count){\n        return imageList.length;\n    }\n    function getOwnerName(uint id) public view returns (string memory Name){\n        return ownerList[imageList[id].Besitzer].name;\n    }\n    function getOwnerMail(uint id) public view returns (string memory Mail){\n        return ownerList[imageList[id].Besitzer].mail;\n    }\n    \n    //function getImageFromOwner() public view returns (Image memory){\n      //  for (uint i = 0; i <= imageList.length; i++){\n        //    require(imageList[i].Besitzer == msg.sender);\n          //  return imageList[i];\n        //}\n    //}\n    \n    function updateImage(uint id,string memory _newhash, string memory update) public {\n       imageList[id].image = _newhash;\n       imageList[id].update = append(imageList[id].update,\", \", update);\n    }\n    \n    function showUpdates(uint id) public view returns(string memory){\n        return imageList[id].update;\n    }\n    function append(string memory a, string memory b, string memory c) internal pure returns (string memory) {\n    return string(abi.encodePacked(a, b, c));\n    }\n    function append9(string memory a, string memory b, string memory c, string memory d, string memory e, string memory f, string memory g, string memory h, string memory i) internal pure returns (string memory) {\n    return string(abi.encodePacked(a, b, c, d, e, f, g, h, i));\n    }\n    \n    //Owner---------------------------------------------------------------\n    function registOwner(string memory _name,  string memory _mail) public{\n        ownerCount ++;\n        address owner = msg.sender;\n        bool isUser = true;\n        ownerList[owner] = Owner(_name, _mail, isUser);\n    }\n    \n    \n    function checkOwner() public view returns (bool ok){\n       if (ownerList[msg.sender].isUser == false){\n            return false;\n        }\n        return true;\n        \n    }\n    function showOwner() public view returns (string memory name, string memory mail){\n        if (checkOwner()){\n            return (ownerList[msg.sender].name , ownerList[msg.sender].mail);\n        }\n        else {\n            return (\"nicht erfasst\", \"nicht erfasst\");\n        }\n    } \n    //Misc---------------------------------------------------------------------\n    function uint2str(uint _i) internal pure returns (string memory _uintAsString) {\n    if (_i == 0) {\n        return \"0\";\n    }\n    uint j = _i;\n    uint len;\n    while (j != 0) {\n        len++;\n        j /= 10;\n    }\n    bytes memory bstr = new bytes(len);\n    uint k = len - 1;\n    while (_i != 0) {\n        bstr[k--] = byte(uint8(48 + _i % 10));\n        _i /= 10;\n    }\n    return string(bstr);\n}\n    \n    }",
  "sourcePath": "/home/michi/git/Project-blockchain_version2/contracts/Urheberrecht.sol",
  "compiler": {
    "name": "solc",
    "version": "0.5.0+commit.1d4f565a.Emscripten.clang"
  },
  "schemaVersion": "3.0.9",
  "updatedAt": "2019-06-23T09:19:51.696Z",
  "devdoc": {
    "methods": {}
  },
  "userdoc": {
    "methods": {}
  }
}